:100000000C9458000C9480000C9480000C94800098
:100010000C9480000C9480000C9480000C94800060
:100020000C9480000C9480000C9480000C94800050
:100030000C9480000C9480000C9480000C94800040
:100040000C9402030C9480000C9496020C947002A1
:100050000C9480000C9480000C9480000C94800020
:100060000C944C030C948000000000002500280034
:100070002B00040404040404040402020202020229
:10008000030303030303010204081020408001025C
:1000900004081020010204081020000000080002DB
:1000A0000100000304070000000000000000930CA2
:1000B00011241FBECFEFD8E0DEBFCDBF11E0A0E01E
:1000C000B1E0E4E2FFE102C005900D92A438B1076F
:1000D000D9F723E0A4E8B1E001C01D92A835B2072A
:1000E000E1F710E0C8E5D0E004C02197FE010E94CE
:1000F000850FC735D107C9F70E9484090C94900F6A
:100100000C940000CF92DF92EF92FF920F931F9317
:10011000CF93DF936C017A018B01C0E0D0E0CE1564
:10012000DF0589F0D8016D918D01D601ED91FC912B
:100130000190F081E02DC6010995892B11F47E0113
:1001400002C02196ECCFC701DF91CF911F910F9193
:10015000FF90EF90DF90CF900895FC01538D448D78
:10016000252F30E0842F90E0821B930B541710F062
:10017000CF96089501970895FC01918D828D98176F
:1001800061F0828DDF01A80FB11D5D968C91928D7B
:100190009F5F9F73928F90E008958FEF9FEF089578
:1001A000FC01918D828D981731F0828DE80FF11D41
:1001B000858D90E008958FEF9FEF0895FC01918D5C
:1001C000228D892F90E0805C9F4F821B91098F7355
:1001D000992708958FEA92E00E94DE0021E0892BA2
:1001E00009F420E0822F0895FC01848DDF01A80F1F
:1001F000B11DA35ABF4F2C91848D90E001968F734F
:100200009927848FA689B7892C93A089B1898C916D
:1002100080648C93938D848D981306C00288F38933
:10022000E02D80818F7D80830895EF92FF920F9360
:100230001F93CF93DF93EC0181E0888F9B8D8C8D92
:10024000981305C0E889F989808185FD24C0F62EC0
:100250000B8D10E00F5F1F4F0F731127E02E8C8D59
:10026000E8120CC00FB607FCFACFE889F989808143
:1002700085FFF5CFCE010E94F400F1CF8B8DFE01FA
:10028000E80FF11DE35AFF4FF0820B8FEA89FB89DB
:100290008081806207C0EE89FF896083E889F989DF
:1002A00080818064808381E090E0DF91CF911F9115
:1002B0000F91FF90EF900895CF93DF93EC01888D1D
:1002C0008823C9F0EA89FB89808185FD05C0A8895A
:1002D000B9898C9186FD0FC00FB607FCF5CF8081E0
:1002E00085FFF2CFA889B9898C9185FFEDCFCE012A
:1002F0000E94F400E7CFDF91CF91089580E090E075
:10030000892B29F00E94EA0081110C9400000895C5
:100310003FB7F8948091D0019091D101A091D20182
:10032000B091D30126B5A89B05C02F3F19F00196C7
:10033000A11DB11D3FBFBA2FA92F982F8827820F6B
:10034000911DA11DB11DBC01CD0142E0660F771FBB
:10035000881F991F4A95D1F7089585ED8093BC00B9
:100360008091BC0084FDFCCF10928C0208954091D6
:10037000A601262F30E0240F311D21323105DCF497
:1003800020918C022430C9F4FC0180E090E08617B3
:1003900058F43091A6012191DC01AC57BE4FA30F58
:1003A000B11D2C930196F3CF8091A601680F609345
:1003B000A60180E0089581E0089582E008950895FF
:1003C000E0918E0280918D02E81730F4F0E0E15761
:1003D000FD4F808190E008958FEF9FEF08959091F9
:1003E0008E0280918D02981750F4E92FF0E0E157CA
:1003F000FD4F208130E09F5F90938E0202C02FEF6F
:100400003FEFC901089580918D0290E020918E0206
:10041000821B91090895CF92DF92EF92FF920F9382
:100420001F93CF93DF937C01262F972F8A01809112
:100430004202882391F0C62FD72F6E01C40ED51E1D
:10044000CC15DD0571F06991D701ED91FC9101901A
:10045000F081E02DC7010995F3CF642F822F0E9410
:10046000B701C801DF91CF911F910F91FF90EF90DD
:10047000DF90CF900895CF93DF931F92CDB7DEB773
:100480006983209142022223D1F02091650220321B
:1004900040F021E030E0FC013383228380E090E0F3
:1004A00015C080914302E82FF0E0EC5BFD4F99818D
:1004B00090838F5F809343028093650205C061E063
:1004C000CE0101960E94B70181E090E00F90DF918C
:1004D000CF910895089580E090E008950E948B0FD9
:1004E0001F920F920FB60F9211242F933F934F93A9
:1004F0005F936F937F938F939F93AF93BF93EF938C
:10050000FF938FEA92E00E94F400FF91EF91BF9178
:10051000AF919F918F917F916F915F914F913F919B
:100520002F910F900FBE0F901F9018951F920F9252
:100530000FB60F9211242F938F939F93EF93FF93F6
:10054000E091BF02F091C0028081E091C502F0917C
:10055000C60282FD12C090818091C8028F5F8F73A6
:100560002091C902821751F0E091C802F0E0E155F4
:10057000FD4F958F8093C80201C08081FF91EF915C
:100580009F918F912F910F900FBE0F901F901895F4
:100590008F929F92AF92BF92CF92DF92EF92FF9293
:1005A0006B017C010E9488014B015C01C114D104E4
:1005B000E104F104F1F00E948801DC01CB0188190B
:1005C0009909AA09BB09883E9340A105B10570F3BA
:1005D00021E0C21AD108E108F10888EE880E83E014
:1005E000981EA11CB11CC114D104E104F10419F737
:1005F000DDCFFF90EF90DF90CF90BF90AF909F90B6
:100600008F9008951F920F920FB60F9211242F937F
:100610003F938F939F93AF93BF938091CC01909121
:10062000CD01A091CE01B091CF013091CB0123E05B
:10063000230F2D3720F40196A11DB11D05C026E81A
:10064000230F0296A11DB11D2093CB018093CC01F5
:100650009093CD01A093CE01B093CF018091D001B2
:100660009091D101A091D201B091D3010196A11D29
:10067000B11D8093D0019093D101A093D201B0938A
:10068000D301BF91AF919F918F913F912F910F9087
:100690000FBE0F901F9018951F920F920FB60F92DA
:1006A00011242F933F934F935F936F937F938F9377
:1006B0009F93AF93BF93EF93FF938091B900887F8F
:1006C000803609F49CC068F5883209F45BC090F468
:1006D000803109F454C038F4882309F4F6C0883016
:1006E00009F44DC0F6C0883109F44CC0803209F4D9
:1006F0005DC0EFC0803409F468C048F4803309F469
:1007000055C0883309F0E5C080938A02D8C080358F
:1007100009F44FC0883509F45DC0883409F0D9C0A8
:10072000D6C0883909F4C7C0A8F4883709F467C06F
:1007300038F4883609F463C0803709F460C0C9C052
:10074000883809F4B8C0803909F45FC0803809F0EE
:10075000C0C05BC0803B09F486C038F4803A09F41D
:1007600066C0883A09F47FC0B4C0803C09F4A7C0D1
:10077000883C09F4A4C0883B09F48AC0AAC08091CF
:10078000870210C09091890280918802981770F5B5
:10079000E091890281E08E0F80938902F0E0EA59AE
:1007A000FD4F80818093BB0085EC86C080938A02D8
:1007B0008EC0E091890281E08E0F80938902809142
:1007C000BB00F0E0EA59FD4F80839091890280914F
:1007D00088026EC0E091890281E08E0F80938902C9
:1007E0008091BB00F0E0EA59FD4F808380918B023D
:1007F00081116DC081E08093860284EA61C083E04C
:1008000080938C021092CA01CFCF8091CA018032AE
:1008100008F051C0E091CA0181E08E0F8093CA01B7
:100820008091BB00F0E0E655FE4F8083BDCF85ECA4
:100830008093BC0010928C028091CA01803230F407
:10084000E091CA01F0E0E655FE4F10826091CA01C6
:1008500070E0E091A801F091A9018AEA91E0099580
:100860001092CA0136C084E080938C021092A701D6
:100870001092A601E091A401F091A5010995809143
:10088000A601811105C081E08093A6011092840128
:10089000E091A70181E08E0F8093A701F0E0EC5773
:1008A000FE4F80818093BB009091A7018091A601AB
:1008B000981708F479CF85E88093BC000AC085ECCE
:1008C0008093BC0010928C0204C010928A020E9495
:1008D000AD01FF91EF91BF91AF919F918F917F916A
:1008E0006F915F914F913F912F910F900FBE0F909D
:1008F0001F90189590918C029111FCCF613208F0F5
:1009000060E291E090938C0290938B022FEF209302
:100910008A0210928902260F209388029093870200
:1009200090918702880F892B80938702809186029D
:10093000813061F410928602809187028093BB001F
:100940008091BC0083FDF8CF85EC01C085EE8093DB
:10095000BC0080918C028130E1F38091890286177E
:1009600010F460918902A6E6B2E02FE832E0F901C6
:100970008E2F821B861718F48D918193F9CF1092D8
:100980008E0260938D02862F0895209165029091CA
:100990006402213208F04AC080918C028111FCCFA0
:1009A00032E030938C0231E030938B023FEF309392
:1009B0008A021092890220938802A4E4B2E046E6FB
:1009C00052E0FA013E2F341B321718F43D91319357
:1009D000F9CF1092870220918702990F922B909362
:1009E000870290918602913061F410928602909174
:1009F00087029093BB009091BC0093FDF8CF95ECDB
:100A000001C095EE9093BC0090918C029230E1F37E
:100A100090918A029F3F79F080918A02803241F062
:100A200080918A02803331F084E005C081E003C008
:100A300082E001C083E0109243021092650210929E
:100A4000420208956F927F928F929F92AF92BF92CF
:100A5000CF92DF92EF92FF920F931F93CF93DF938A
:100A60008C0180914002BB24B394B09242028093E7
:100A70006402109243021092650263E48CE493E0F6
:100A80000E943B020E94C504809140029091410265
:100A9000B092420280936402109243021092650267
:100AA00066E070E00E947A0480918D0290E02091CF
:100AB0008E02821B910986309105ECF38CE493E061
:100AC0000E94EF01682E8CE493E00E94EF01782EE3
:100AD0008CE493E00E94EF01882E8CE493E00E9466
:100AE000EF01982E8CE493E00E94EF01A82E8CE495
:100AF00093E00E94EF01B82ED62CC12CB6016729D5
:100B0000072E000C880B990B0E94E10D6093E00109
:100B10007093E1018093E2019093E301F82CE12CC2
:100B2000B7016929072E000C880B990B0E94E10D73
:100B30006093E4017093E5018093E6019093E701EF
:100B4000DA2D80E0C82FBE016B29072E000C880B20
:100B5000990B0E94E10D6093E8017093E901809385
:100B6000EA019093EB018CE0E0EEF1E0D801019016
:100B70000D928A95E1F7C801DF91CF911F910F91F6
:100B8000FF90EF90DF90CF90BF90AF909F908F90AD
:100B90007F906F9008954F925F926F927F928F92A5
:100BA0009F92AF92BF92CF92DF92EF92FF921F93EC
:100BB000CF93DF93CDB7DEB7A4970FB6F894DEBF1F
:100BC0000FBECDBF81E080933F0212E319A21AA2AB
:100BD0001BA21CA21D8E1E8E1F8E18A2198E1A8E8D
:100BE0001B8E1C8EC12CD12C76014601570126018B
:100BF0003701CE0101960E9422058091E00190917B
:100C0000E101A091E201B091E3018D879E87AF875A
:100C1000B88B9C01AD01C301B2010E94CD0C2B0128
:100C20003C018091E4019091E501A091E601B09131
:100C3000E701898B9A8BAB8BBC8B9C01AD01C50105
:100C4000B4010E94CD0C4B015C018091E8019091B0
:100C5000E901A091EA01B091EB018D8B9E8BAF8BE6
:100C6000B88F9C01AD01C701B6010E94CD0C6B018C
:100C70007C012D853E854F855889CA01B9010E94A6
:100C8000960E9B01AC01698D7A8D8B8D9C8D0E9497
:100C9000CD0C698F7A8F8B8F9C8F29893A894B89EC
:100CA0005C89CA01B9010E94960E9B01AC016D8D51
:100CB0007E8D8F8D98A10E94CD0C6D8F7E8F8F8F32
:100CC00098A32D893E894F89588DCA01B9010E9488
:100CD000960E9B01AC0169A17AA18BA19CA10E94F7
:100CE000CD0C69A37AA38BA39CA365E070E080E0A0
:100CF00090E00E94C802115009F07BCF20E030E064
:100D000048E452E4C301B2010E943E0D2B013C01B4
:100D10006093100270931102809312029093130259
:100D200020E030E048E452E4C501B4010E943E0DE9
:100D30004B015C01609314027093150280931602BC
:100D40009093170220E030E048E452E4C701B60176
:100D50000E943E0D6B017C01609318027093190292
:100D600080931A0290931B0220E030E048E452E4A2
:100D7000698D7A8D8B8D9C8D0E943E0D6D877E874F
:100D80008F87988BA3019201C301B2010E94960E36
:100D90009B01AC016D857E858F8598890E94CC0C66
:100DA0000E94090F60931C0270931D0280931E0223
:100DB00090931F0220E030E048E452E46D8D7E8D78
:100DC0008F8D98A10E943E0D2B013C01A50194013D
:100DD000C501B4010E94960E9B01AC01C301B20192
:100DE0000E94CC0C0E94090F609320027093210294
:100DF000809322029093230220E030E048E452E402
:100E000069A17AA18BA19CA10E943E0D4B015C01BE
:100E1000A7019601C701B6010E94960E9B01AC0185
:100E2000C501B4010E94CC0C0E94090F60932402FA
:100E3000709325028093260290932702C0903B0274
:100E4000D0903C02E0903D02F0903E0220E030E085
:100E5000A901C701B6010E94910E18160CF079C0C5
:100E6000C701B6010E94B00DF62E662309F44BC0EF
:100E700080913F02811102C00E94CB056F2D70E06E
:100E800080E090E00E94E10D4B015C019B01AC0110
:100E900060911C0270911D0280911E0290911F02B0
:100EA0000E94960E609304027093050280930602DE
:100EB00090930702A5019401609120027091210294
:100EC00080912202909123020E94960E6093080264
:100ED0007093090280930A0290930B02A50194017A
:100EE0006091240270912502809126029091270240
:100EF0000E94960E60930C0270930D0280930E0276
:100F000090930F0218C010920402109205021092E2
:100F10000602109207021092080210920902109223
:100F20000A0210920B0210920C0210920D02109203
:100F30000E0210920F026F2D70E080E090E00E9490
:100F4000DF0D60933B0270933C0280933D029093CF
:100F50003E02A4960FB6F894DEBF0FBECDBFDF9160
:100F6000CF911F91FF90EF90DF90CF90BF90AF9007
:100F70009F908F907F906F905F904F900895CF9348
:100F8000C62F9091400221E0209342029093640288
:100F90001092430210926502682F8CE493E00E9445
:100FA0003B026C2F8CE493E00E943B02CF910C94A7
:100FB000C504CF9390914002C1E0C0934202909348
:100FC00064021092430210926502682F8CE493E051
:100FD0000E943B020E94C504809140029091410210
:100FE000C093420280936402109243021092650201
:100FF00061E070E00E947A0490918D0280918E02EF
:101000009817F1F38CE493E00E94EF01C82F0E943F
:10101000C5048C2FCF91089590E0FC01E656FF4F58
:101020002491FC01EA57FF4F3491FC01EE58FF4F29
:10103000E491EE23B1F1222339F1233091F038F419
:101040002130A9F0223001F584B58F7D12C0273000
:1010500091F02830A1F02430B9F4809180008F7D88
:1010600003C0809180008F77809380000DC084B58D
:101070008F7784BD09C08091B0008F7703C08091C5
:10108000B0008F7D8093B000F0E0EE0FFF1FE859B5
:10109000FF4FA591B4918FB7F894EC913E2B3C9300
:1010A0008FBF0895009769F0FC0101900020E9F7D7
:1010B0003197AF01481B590BBC018FEA92E00C94A9
:1010C000820080E090E008958F929F92AF92BF924D
:1010D0000F931F93CF93DF93CDB7DEB7A1970FB6D2
:1010E000F894DEBF0FBECDBF19A2423008F44AE02B
:1010F0008E010F5D1F4F842E912CA12CB12CA501C8
:1011000094010E94630FE62FB901CA010150110931
:10111000EA3014F4E05D01C0E95CD801EC93232BC4
:10112000242B252B61F7C8010E945208A1960FB607
:10113000F894DEBF0FBECDBFDF91CF911F910F910D
:10114000BF90AF909F908F900895E091AF02F09183
:10115000B0020190F081E02D682F8FEA92E00994AF
:101160004F925F926F927F928F929F92AF92BF92B7
:10117000CF92DF92EF92FF926B017C01B42E9B0124
:10118000AC010E94490F882319F087E791E027C03E
:1011900026013701E89477F82FEF3FEF4FE75FE73D
:1011A000C301B2010E94490F81110DC02FEF3FEF23
:1011B0004FE75FE7C301B2010E94390D18161CF416
:1011C0008BE791E00CC02FEF3FEF4FE75FE4C701E3
:1011D000B6010E94910E181684F48FE791E0FF90FB
:1011E000EF90DF90CF90BF90AF909F908F907F90C7
:1011F0006F905F904F900C9452082FEF3FEF4FE7A6
:101200005FECC701B6010E94390D87FDE6CF20E0F3
:1012100030E0A901C701B6010E94390D87FF09C05E
:101220008DE20E94A5084C01F7FAF094F7F8F094CB
:1012300002C0812C912CA12C60E070E080E09FE343
:10124000AB1441F020E030E040E251E40E943E0D5A
:10125000A394F6CF9B01AC01C701B6010E94CD0C4F
:101260002B013C010E94B00D6B017C010E94DF0D3F
:101270009B01AC01C301B2010E94CC0C2B013C01CB
:101280004AE0C701B6010E9464087C01E80CF91C21
:10129000BB2029F08EE20E94A508E80EF91EDB2C87
:1012A000DD2021F120E030E040E251E4C301B20151
:1012B0000E94960E2B013C010E94B00D4B01A12C07
:1012C000B12C4AE0C501B4010E946408E80EF91E81
:1012D000C501B4010E94DF0D9B01AC01C301B20145
:1012E0000E94CC0C2B013C01DA94DACFC701FF90AD
:1012F000EF90DF90CF90BF90AF909F908F907F90B6
:101300006F905F904F900895CF93DF93CDB7DEB786
:1013100068970FB6F894DEBF0FBECDBF789484B542
:10132000826084BD84B5816084BD85B5826085BDE1
:1013300085B5816085BD80916E00816080936E006F
:101340001092810080918100826080938100809161
:101350008100816080938100809180008160809312
:1013600080008091B10084608093B1008091B000D2
:1013700081608093B00080917A00846080937A00CD
:1013800080917A00826080937A0080917A008160F7
:1013900080937A0080917A00806880937A0010921E
:1013A000C100E091BF02F091C00282E08083E09131
:1013B000BB02F091BC021082E091BD02F091BE022E
:1013C00080E180831092C702E091C302F091C402D1
:1013D00086E08083E091C102F091C2028081806149
:1013E0008083E091C102F091C20280818860808395
:1013F000E091C102F091C202808180688083E09117
:10140000C102F091C20280818F7D808384E291E0ED
:101410000E94520884E491E00E94520887E491E01F
:101420000E9452084AE064E070E080E090E00E9490
:10143000640884E491E00E94520888E6E82EF12CCA
:1014400011E098E4C92E25E4D22EF0924102E092F8
:10145000400210928E0210928D021092430210925E
:10146000650210928C0210938B021092860282E128
:101470000E940C0883E10E940C088091B9008E7FC5
:101480008093B9008091B9008D7F8093B900C0929C
:10149000B800D092BC00109210021092110210926B
:1014A000120210921302109214021092150210925E
:1014B000160210921702109218021092190210923E
:1014C0001A0210921B0210923F0210920402109214
:1014D0000502109206021092070210920802109262
:1014E000090210920A0210920B0210920C02109242
:1014F0000D0210920E0210920F0210923B021092F7
:101500003C0210923D0210923E02809140021093E4
:10151000420280936402109243021092650265E7D2
:101520008CE493E00E943B020E94C504809140023B
:101530009091410210934202809364021092430200
:101540001092650261E070E00E947A048CE493E0FE
:101550000E94EF01082F0E94C504083629F088E593
:1015600091E00E94520871CF8BE60E94D907887FD4
:10157000682F61608BE60E94BF078CEE90ECA9E7B4
:10158000BDE38093330290933402A0933502B0936D
:1015900036028BE10E94D907682F68618BE10E94B7
:1015A000BF0780E49AEDAFE7B8E3809337029093EA
:1015B0003802A0933902B0933A028CE10E94D90715
:1015C000682F677E8CE10E94BF078BE60E94D907D7
:1015D000682F6F7B8BE60E94BF070E94CB0510929D
:1015E0000402109205021092060210920702109255
:1015F00008021092090210920A0210920B02109235
:101600000C0210920D0210920E0210920F02109214
:101610003B0210923C0210923D0210923E02CE011B
:101620000D960E942205CE0101960E94220580910E
:101630003F02C0903302D0903402E0903502F09027
:101640003602882309F451C0209110023091110212
:1016500040911202509113026091E0017091E101FA
:101660008091E2019091E3010E94CC0CA7019601C8
:101670000E94960E6093F8017093F9018093FA012D
:101680009093FB01209114023091150240911602B3
:10169000509117026091E4017091E5018091E6019B
:1016A0009091E7010E94CC0CA70196010E94960E32
:1016B0006093FC017093FD018093FE019093FF0104
:1016C000209118023091190240911A0250911B0288
:1016D0006091E8017091E9018091EA019091EB013C
:1016E0000E94CC0CA701960132C0A701960160911F
:1016F000E0017091E1018091E2019091E3010E948B
:10170000960E6093F8017093F9018093FA0190931B
:10171000FB01A70196016091E4017091E5018091C0
:10172000E6019091E7010E94960E6093FC01709390
:10173000FD018093FE019093FF01A7019601609146
:10174000E8017091E9018091EA019091EB010E941A
:10175000960E6093000270930102809302029093B0
:10176000030220E030E0A90160913B0270913C024D
:1017700080913D0290913E020E94390D882309F428
:1017800081C0C090F801D090F901E090FA01F0908A
:10179000FB0120E030E0A901C701B6010E94910ED3
:1017A000181624F0F7FAF094F7F8F0942091040258
:1017B000309105024091060250910702C701B6011F
:1017C0000E94390D87FF08C01092F8011092F901AC
:1017D0001092FA011092FB01C090FC01D090FD0123
:1017E000E090FE01F090FF0120E030E0A901C70188
:1017F000B6010E94910E181624F0F7FAF094F7F84B
:10180000F094209108023091090240910A0250910F
:101810000B02C701B6010E94390D87FF08C0109264
:10182000FC011092FD011092FE011092FF01C09088
:101830000002D0900102E0900202F090030220E04A
:1018400030E0A901C701B6010E94910E181624F0DC
:10185000F7FAF094F7F8F09420910C0230910D0211
:1018600040910E0250910F02C701B6010E94390D3E
:1018700087FF08C01092000210920102109202022B
:10188000109203024090F8015090F9016090FA0123
:101890007090FB018090FC019090FD01A090FE01F2
:1018A000B090FF01C0900002D0900102E0900202CF
:1018B000F09003026D857E858F85988942E00E94B5
:1018C000B00889E00E94A50869897A898B899C897A
:1018D00042E00E94B00889E00E94A5086D897E89D7
:1018E0008F89988D42E00E94B00842E0C301B201A6
:1018F0000E94B00889E00E94A50842E0C501B40139
:101900000E94B00889E00E94A50842E0C701B60124
:101910000E94B00868EE73E080E090E00E94C80288
:101920000E947E017CCEEFEAF2E01382128288EE02
:1019300093E0A0E0B0E084839583A683B78324E09E
:1019400031E03183208325EC30E03587248724EC97
:1019500030E03787268720EC30E0318B208B21EC7C
:1019600030E0338B228B22EC30E0358B248B26EC5D
:1019700030E0378B268B118E128E138E148EECE492
:10198000F3E01382128284839583A683B78386E172
:1019900091E09183808308955058BB27AA270E9425
:1019A000E40C0C94570E0E94490E38F00E94500E21
:1019B00020F039F49F3F19F426F40C94460E0EF4EF
:1019C000E095E7FB0C94400EE92F0E94680E58F357
:1019D000BA17620773078407950720F079F4A6F514
:1019E0000C948A0E0EF4E0950B2EBA2FA02D0B014D
:1019F000B90190010C01CA01A0011124FF27591B54
:101A000099F0593F50F4503E68F11A16F040A22F59
:101A1000232F342F4427585FF3CF469537952795CA
:101A2000A795F0405395C9F77EF41F16BA0B620BC9
:101A3000730B840BBAF09150A1F0FF0FBB1F661F10
:101A4000771F881FC2F70EC0BA0F621F731F841F53
:101A500048F4879577956795B795F7959E3F08F079
:101A6000B0CF9395880F08F09927EE0F979587953B
:101A700008950E941C0E08F481E008950E94520D02
:101A80000C94570E0E94500E58F00E94490E40F0E0
:101A900029F45F3F29F00C94400E51110C948B0EE9
:101AA0000C94460E0E94680E68F39923B1F35523F7
:101AB00091F3951B550BBB27AA2762177307840761
:101AC00038F09F5F5F4F220F331F441FAA1FA9F3F7
:101AD00035D00E2E3AF0E0E832D091505040E695E5
:101AE000001CCAF72BD0FE2F29D0660F771F881F46
:101AF000BB1F261737074807AB07B0E809F0BB0B39
:101B0000802DBF01FF2793585F4F3AF09E3F51054C
:101B100078F00C94400E0C948B0E5F3FE4F3983EEB
:101B2000D4F3869577956795B795F7959F5FC9F735
:101B3000880F911D9695879597F90895E1E0660FB6
:101B4000771F881FBB1F621773078407BA0720F02F
:101B5000621B730B840BBA0BEE1F88F7E095089598
:101B60000E94700E88F09F5798F0B92F9927B751AF
:101B7000B0F0E1F0660F771F881F991F1AF0BA9531
:101B8000C9F714C0B13091F00E948A0EB1E00895F7
:101B90000C948A0E672F782F8827B85F39F0B93FE9
:101BA000CCF3869577956795B395D9F73EF49095E4
:101BB0008095709561957F4F8F4F9F4F0895E89462
:101BC00009C097FB3EF490958095709561957F4F85
:101BD0008F4F9F4F9923A9F0F92F96E9BB27939533
:101BE000F695879577956795B795F111F8CFFAF443
:101BF000BB0F11F460FF1BC06F5F7F4F8F4F9F4F74
:101C000016C0882311F096E911C0772321F09EE8D1
:101C1000872F762F05C0662371F096E8862F70E037
:101C200060E02AF09A95660F771F881FDAF7880F11
:101C30009695879597F90895990F0008550FAA0B67
:101C4000E0E8FEEF16161706E807F907C0F01216CF
:101C50001306E407F50798F0621B730B840B950BD2
:101C600039F40A2661F0232B242B252B21F4089527
:101C70000A2609F4A140A6958FEF811D811D0895C4
:101C800097F99F6780E870E060E008959FEF80EC2F
:101C9000089500240A9416161706180609060895D2
:101CA00000240A9412161306140605060895092E38
:101CB0000394000C11F4882352F0BB0F40F4BF2BA7
:101CC00011F460FF04C06F5F7F4F8F4F9F4F0895E7
:101CD00057FD9058440F551F59F05F3F71F04795DD
:101CE000880F97FB991F61F09F3F79F087950895C2
:101CF000121613061406551FF2CF4695F1DF08C0E1
:101D0000161617061806991FF1CF869571056105FD
:101D100008940895E894BB2766277727CB0197F9A5
:101D200008950E941C0E08F48FEF08950E94A90EDA
:101D30000C94570E0E94490E38F00E94500E20F06D
:101D4000952311F00C94400E0C94460E11240C9423
:101D50008B0E0E94680E70F3959FC1F3950F50E0B3
:101D6000551F629FF001729FBB27F00DB11D639F4D
:101D7000AA27F00DB11DAA1F649F6627B00DA11DF3
:101D8000661F829F2227B00DA11D621F739FB00D99
:101D9000A11D621F839FA00D611D221F749F332709
:101DA000A00D611D231F849F600D211D822F762FA2
:101DB0006A2F11249F5750409AF0F1F088234AF07F
:101DC000EE0FFF1FBB1F661F771F881F91505040EB
:101DD000A9F79E3F510580F00C94400E0C948B0E99
:101DE0005F3FE4F3983ED4F3869577956795B79572
:101DF000F795E7959F5FC1F7FE2B880F911D96958C
:101E0000879597F9089519F416F40C94460E0C94DE
:101E10004E0F0E94700EB8F39923C9F3B6F39F5783
:101E2000550B87FF0E945C0F0024A0E640EA90015A
:101E300080585695979528F4805C660F771F881F09
:101E400020F026173707480730F4621B730B840B0A
:101E5000202931294A2BA69517940794202531254E
:101E60004A2758F7660F771F881F20F02617370775
:101E7000480730F4620B730B840B200D311D411D9C
:101E8000A09581F7B901842F9158880F9695879571
:101E900008950E941C0E880B990B08959F3F31F006
:101EA000915020F4879577956795B795880F911D88
:101EB0009695879597F9089591505040660F771F32
:101EC000881FD2F70895A1E21A2EAA1BBB1BFD01A1
:101ED0000DC0AA1FBB1FEE1FFF1FA217B307E40709
:101EE000F50720F0A21BB30BE40BF50B661F771F61
:101EF000881F991F1A9469F7609570958095909541
:101F00009B01AC01BD01CF010895EE0FFF1F0590AD
:101F1000F491E02D099481E090E0F8940C94900FF6
:041F2000F894FFCF63
:101F24000000000015018200AD005C01DE00BC0071
:101F3400D000000000003B020B026B02DF01030231
:101F4400EF01E001496E697469616C697A617469D1
:101F54006F6E204D5055363035302066726F6D20CF
:101F6400565320000D0A0073697A65206F66206657
:101F74006C6F6174203D2000436F756E64206E6F3A
:101F8400742066696E6420612076616C6964204DFA
:101F9400505536303530006E616E00696E66006FE4
:041FA400766600005D
:00000001FF
